{
  "contractName": "CoffeeSupplyChain",
  "abi": [
    {
      "inputs": [],
      "stateMutability": "nonpayable",
      "type": "constructor"
    },
    {
      "anonymous": false,
      "inputs": [
        {
          "indexed": false,
          "internalType": "uint256",
          "name": "upc",
          "type": "uint256"
        }
      ],
      "name": "ForSale",
      "type": "event"
    },
    {
      "anonymous": false,
      "inputs": [
        {
          "indexed": false,
          "internalType": "uint256",
          "name": "upc",
          "type": "uint256"
        }
      ],
      "name": "Harvested",
      "type": "event"
    },
    {
      "anonymous": false,
      "inputs": [
        {
          "indexed": false,
          "internalType": "uint256",
          "name": "upc",
          "type": "uint256"
        }
      ],
      "name": "Packed",
      "type": "event"
    },
    {
      "anonymous": false,
      "inputs": [
        {
          "indexed": false,
          "internalType": "uint256",
          "name": "upc",
          "type": "uint256"
        }
      ],
      "name": "Processed",
      "type": "event"
    },
    {
      "anonymous": false,
      "inputs": [
        {
          "indexed": false,
          "internalType": "uint256",
          "name": "upc",
          "type": "uint256"
        }
      ],
      "name": "Purchased",
      "type": "event"
    },
    {
      "anonymous": false,
      "inputs": [
        {
          "indexed": false,
          "internalType": "uint256",
          "name": "upc",
          "type": "uint256"
        }
      ],
      "name": "Received",
      "type": "event"
    },
    {
      "anonymous": false,
      "inputs": [
        {
          "indexed": false,
          "internalType": "uint256",
          "name": "upc",
          "type": "uint256"
        }
      ],
      "name": "Shipped",
      "type": "event"
    },
    {
      "anonymous": false,
      "inputs": [
        {
          "indexed": false,
          "internalType": "uint256",
          "name": "upc",
          "type": "uint256"
        }
      ],
      "name": "Sold",
      "type": "event"
    },
    {
      "inputs": [
        {
          "internalType": "uint256",
          "name": "_upc",
          "type": "uint256"
        },
        {
          "internalType": "address",
          "name": "_farmerId",
          "type": "address"
        },
        {
          "internalType": "string",
          "name": "_productNotes",
          "type": "string"
        },
        {
          "internalType": "string",
          "name": "_productId",
          "type": "string"
        }
      ],
      "name": "harvestItem",
      "outputs": [],
      "stateMutability": "nonpayable",
      "type": "function"
    },
    {
      "inputs": [
        {
          "internalType": "uint256",
          "name": "_upc",
          "type": "uint256"
        }
      ],
      "name": "processItem",
      "outputs": [],
      "stateMutability": "nonpayable",
      "type": "function"
    },
    {
      "inputs": [
        {
          "internalType": "uint256",
          "name": "_upc",
          "type": "uint256"
        }
      ],
      "name": "packItem",
      "outputs": [],
      "stateMutability": "nonpayable",
      "type": "function"
    },
    {
      "inputs": [
        {
          "internalType": "uint256",
          "name": "_upc",
          "type": "uint256"
        },
        {
          "internalType": "uint256",
          "name": "_price",
          "type": "uint256"
        }
      ],
      "name": "sellItem",
      "outputs": [],
      "stateMutability": "nonpayable",
      "type": "function"
    },
    {
      "inputs": [
        {
          "internalType": "uint256",
          "name": "_upc",
          "type": "uint256"
        },
        {
          "internalType": "address",
          "name": "_distributorId",
          "type": "address"
        }
      ],
      "name": "buyItem",
      "outputs": [],
      "stateMutability": "nonpayable",
      "type": "function"
    },
    {
      "inputs": [
        {
          "internalType": "uint256",
          "name": "_upc",
          "type": "uint256"
        }
      ],
      "name": "shipItem",
      "outputs": [],
      "stateMutability": "nonpayable",
      "type": "function"
    },
    {
      "inputs": [
        {
          "internalType": "uint256",
          "name": "_upc",
          "type": "uint256"
        },
        {
          "internalType": "address",
          "name": "_retailerId",
          "type": "address"
        }
      ],
      "name": "receiveItem",
      "outputs": [],
      "stateMutability": "nonpayable",
      "type": "function"
    },
    {
      "inputs": [
        {
          "internalType": "uint256",
          "name": "_upc",
          "type": "uint256"
        },
        {
          "internalType": "address",
          "name": "_consumerId",
          "type": "address"
        }
      ],
      "name": "purchaseItem",
      "outputs": [],
      "stateMutability": "nonpayable",
      "type": "function"
    },
    {
      "inputs": [
        {
          "internalType": "uint256",
          "name": "_upc",
          "type": "uint256"
        }
      ],
      "name": "fetchItemByUpc",
      "outputs": [
        {
          "internalType": "uint256",
          "name": "itemSKU",
          "type": "uint256"
        },
        {
          "internalType": "uint256",
          "name": "itemUPC",
          "type": "uint256"
        },
        {
          "internalType": "address",
          "name": "farmerId",
          "type": "address"
        },
        {
          "internalType": "string",
          "name": "productId",
          "type": "string"
        },
        {
          "internalType": "string",
          "name": "productNotes",
          "type": "string"
        },
        {
          "internalType": "uint256",
          "name": "productPrice",
          "type": "uint256"
        },
        {
          "internalType": "uint256",
          "name": "itemState",
          "type": "uint256"
        },
        {
          "internalType": "address",
          "name": "distributorId",
          "type": "address"
        },
        {
          "internalType": "address",
          "name": "retailerId",
          "type": "address"
        },
        {
          "internalType": "address",
          "name": "consumerId",
          "type": "address"
        }
      ],
      "stateMutability": "view",
      "type": "function"
    }
  ],
  "bytecode": "0x608060405234801561001057600080fd5b506001600081905550611799806100286000396000f3fe608060405234801561001057600080fd5b50600436106100935760003560e01c80637bfe9efd116100665780637bfe9efd14610125578063a80b20f214610141578063b15d580d1461015d578063f30fc48014610179578063f61c899a1461019557610093565b80632c5b7ec8146100985780632d923561146100d157806349dae766146100ed5780637383d70914610109575b600080fd5b6100b260048036038101906100ad9190610fa1565b6101b1565b6040516100c89a999897969594939291906110ae565b60405180910390f35b6100eb60048036038101906100e69190611158565b610477565b005b61010760048036038101906101029190610fa1565b610562565b005b610123600480360381019061011e91906111c4565b610630565b005b61013f600480360381019061013a91906111c4565b6107aa565b005b61015b600480360381019061015691906111c4565b610924565b005b61017760048036038101906101729190611339565b610a9e565b005b610193600480360381019061018e9190610fa1565b610db9565b005b6101af60048036038101906101aa9190610fa1565b610e88565b005b60008060006060806000806000806000600160008c8152602001908152602001600020600001549950600160008c8152602001908152602001600020600101549850600160008c815260200190815260200160002060030160009054906101000a900473ffffffffffffffffffffffffffffffffffffffff169750600160008c8152602001908152602001600020600401805461024d90611407565b80601f016020809104026020016040519081016040528092919081815260200182805461027990611407565b80156102c65780601f1061029b576101008083540402835291602001916102c6565b820191906000526020600020905b8154815290600101906020018083116102a957829003601f168201915b50505050509650600160008c815260200190815260200160002060050180546102ee90611407565b80601f016020809104026020016040519081016040528092919081815260200182805461031a90611407565b80156103675780601f1061033c57610100808354040283529160200191610367565b820191906000526020600020905b81548152906001019060200180831161034a57829003601f168201915b50505050509550600160008c8152602001908152602001600020600601549450600160008c815260200190815260200160002060070160009054906101000a900460ff1660078111156103bd576103bc611438565b5b9350600160008c815260200190815260200160002060070160019054906101000a900473ffffffffffffffffffffffffffffffffffffffff169250600160008c815260200190815260200160002060080160009054906101000a900473ffffffffffffffffffffffffffffffffffffffff169150600160008c815260200190815260200160002060090160009054906101000a900473ffffffffffffffffffffffffffffffffffffffff1690509193959799509193959799565b816002600781111561048c5761048b611438565b5b6001600083815260200190815260200160002060070160009054906101000a900460ff1660078111156104c2576104c1611438565b5b146104cc57600080fd5b60036001600085815260200190815260200160002060070160006101000a81548160ff0219169083600781111561050657610505611438565b5b02179055508160016000858152602001908152602001600020600601819055507fa96ae0fc3224ebd79eebfe54bd130cc9cb94416cddd1f2386115e00b72532468836040516105559190611467565b60405180910390a1505050565b806000600781111561057757610576611438565b5b6001600083815260200190815260200160002060070160009054906101000a900460ff1660078111156105ad576105ac611438565b5b146105b757600080fd5b600180600084815260200190815260200160002060070160006101000a81548160ff021916908360078111156105f0576105ef611438565b5b02179055507f5afe3b1bf87069693c075da5c22a98d63d1aef98a30dbbe538d0781a98b77ee5826040516106249190611467565b60405180910390a15050565b816003600781111561064557610644611438565b5b6001600083815260200190815260200160002060070160009054906101000a900460ff16600781111561067b5761067a611438565b5b1461068557600080fd5b816001600085815260200190815260200160002060020160006101000a81548173ffffffffffffffffffffffffffffffffffffffff021916908373ffffffffffffffffffffffffffffffffffffffff160217905550816001600085815260200190815260200160002060070160016101000a81548173ffffffffffffffffffffffffffffffffffffffff021916908373ffffffffffffffffffffffffffffffffffffffff16021790555060046001600085815260200190815260200160002060070160006101000a81548160ff0219169083600781111561076957610768611438565b5b02179055507f92f64ca637d023f354075a4be751b169c1a8a9ccb6d33cdd0cb35205439957278360405161079d9190611467565b60405180910390a1505050565b81600660078111156107bf576107be611438565b5b6001600083815260200190815260200160002060070160009054906101000a900460ff1660078111156107f5576107f4611438565b5b146107ff57600080fd5b816001600085815260200190815260200160002060020160006101000a81548173ffffffffffffffffffffffffffffffffffffffff021916908373ffffffffffffffffffffffffffffffffffffffff160217905550816001600085815260200190815260200160002060090160006101000a81548173ffffffffffffffffffffffffffffffffffffffff021916908373ffffffffffffffffffffffffffffffffffffffff16021790555060076001600085815260200190815260200160002060070160006101000a81548160ff021916908360078111156108e3576108e2611438565b5b02179055507f653d56639fee6b566a5c804764e9689de38645f0b733df89a36a1b7b42173dd8836040516109179190611467565b60405180910390a1505050565b816005600781111561093957610938611438565b5b6001600083815260200190815260200160002060070160009054906101000a900460ff16600781111561096f5761096e611438565b5b1461097957600080fd5b816001600085815260200190815260200160002060020160006101000a81548173ffffffffffffffffffffffffffffffffffffffff021916908373ffffffffffffffffffffffffffffffffffffffff160217905550816001600085815260200190815260200160002060080160006101000a81548173ffffffffffffffffffffffffffffffffffffffff021916908373ffffffffffffffffffffffffffffffffffffffff16021790555060066001600085815260200190815260200160002060070160006101000a81548160ff02191690836007811115610a5d57610a5c611438565b5b02179055507fa8142743f8f70a4c26f3691cf4ed59718381fb2f18070ec52be1f1022d85555783604051610a919190611467565b60405180910390a1505050565b60405180610160016040528060005481526020018581526020018473ffffffffffffffffffffffffffffffffffffffff1681526020018473ffffffffffffffffffffffffffffffffffffffff1681526020018281526020018381526020016000815260200160006007811115610b1757610b16611438565b5b8152602001600073ffffffffffffffffffffffffffffffffffffffff168152602001600073ffffffffffffffffffffffffffffffffffffffff168152602001600073ffffffffffffffffffffffffffffffffffffffff1681525060016000868152602001908152602001600020600082015181600001556020820151816001015560408201518160020160006101000a81548173ffffffffffffffffffffffffffffffffffffffff021916908373ffffffffffffffffffffffffffffffffffffffff16021790555060608201518160030160006101000a81548173ffffffffffffffffffffffffffffffffffffffff021916908373ffffffffffffffffffffffffffffffffffffffff1602179055506080820151816004019081610c3b919061162e565b5060a0820151816005019081610c51919061162e565b5060c0820151816006015560e08201518160070160006101000a81548160ff02191690836007811115610c8757610c86611438565b5b02179055506101008201518160070160016101000a81548173ffffffffffffffffffffffffffffffffffffffff021916908373ffffffffffffffffffffffffffffffffffffffff1602179055506101208201518160080160006101000a81548173ffffffffffffffffffffffffffffffffffffffff021916908373ffffffffffffffffffffffffffffffffffffffff1602179055506101408201518160090160006101000a81548173ffffffffffffffffffffffffffffffffffffffff021916908373ffffffffffffffffffffffffffffffffffffffff1602179055509050506001600054610d76919061172f565b6000819055507f8e55ccfc9778ff8eba1646d765cf1982537ce0f9257054a17b48aad74525018384604051610dab9190611467565b60405180910390a150505050565b8060016007811115610dce57610dcd611438565b5b6001600083815260200190815260200160002060070160009054906101000a900460ff166007811115610e0457610e03611438565b5b14610e0e57600080fd5b60026001600084815260200190815260200160002060070160006101000a81548160ff02191690836007811115610e4857610e47611438565b5b02179055507f9b3b66e2380b690bae22c73ef1428fb0c91e72fe14a4b6defa13035214187aff82604051610e7c9190611467565b60405180910390a15050565b8060046007811115610e9d57610e9c611438565b5b6001600083815260200190815260200160002060070160009054906101000a900460ff166007811115610ed357610ed2611438565b5b14610edd57600080fd5b60056001600084815260200190815260200160002060070160006101000a81548160ff02191690836007811115610f1757610f16611438565b5b02179055507ff00b9a5725b80c54016f42114f6ed7792d22eecb116011c4afac29c57bef6c9582604051610f4b9190611467565b60405180910390a15050565b6000604051905090565b600080fd5b600080fd5b6000819050919050565b610f7e81610f6b565b8114610f8957600080fd5b50565b600081359050610f9b81610f75565b92915050565b600060208284031215610fb757610fb6610f61565b5b6000610fc584828501610f8c565b91505092915050565b610fd781610f6b565b82525050565b600073ffffffffffffffffffffffffffffffffffffffff82169050919050565b600061100882610fdd565b9050919050565b61101881610ffd565b82525050565b600081519050919050565b600082825260208201905092915050565b60005b8381101561105857808201518184015260208101905061103d565b60008484015250505050565b6000601f19601f8301169050919050565b60006110808261101e565b61108a8185611029565b935061109a81856020860161103a565b6110a381611064565b840191505092915050565b6000610140820190506110c4600083018d610fce565b6110d1602083018c610fce565b6110de604083018b61100f565b81810360608301526110f0818a611075565b905081810360808301526111048189611075565b905061111360a0830188610fce565b61112060c0830187610fce565b61112d60e083018661100f565b61113b61010083018561100f565b61114961012083018461100f565b9b9a5050505050505050505050565b6000806040838503121561116f5761116e610f61565b5b600061117d85828601610f8c565b925050602061118e85828601610f8c565b9150509250929050565b6111a181610ffd565b81146111ac57600080fd5b50565b6000813590506111be81611198565b92915050565b600080604083850312156111db576111da610f61565b5b60006111e985828601610f8c565b92505060206111fa858286016111af565b9150509250929050565b600080fd5b600080fd5b7f4e487b7100000000000000000000000000000000000000000000000000000000600052604160045260246000fd5b61124682611064565b810181811067ffffffffffffffff821117156112655761126461120e565b5b80604052505050565b6000611278610f57565b9050611284828261123d565b919050565b600067ffffffffffffffff8211156112a4576112a361120e565b5b6112ad82611064565b9050602081019050919050565b82818337600083830152505050565b60006112dc6112d784611289565b61126e565b9050828152602081018484840111156112f8576112f7611209565b5b6113038482856112ba565b509392505050565b600082601f8301126113205761131f611204565b5b81356113308482602086016112c9565b91505092915050565b6000806000806080858703121561135357611352610f61565b5b600061136187828801610f8c565b9450506020611372878288016111af565b935050604085013567ffffffffffffffff81111561139357611392610f66565b5b61139f8782880161130b565b925050606085013567ffffffffffffffff8111156113c0576113bf610f66565b5b6113cc8782880161130b565b91505092959194509250565b7f4e487b7100000000000000000000000000000000000000000000000000000000600052602260045260246000fd5b6000600282049050600182168061141f57607f821691505b602082108103611432576114316113d8565b5b50919050565b7f4e487b7100000000000000000000000000000000000000000000000000000000600052602160045260246000fd5b600060208201905061147c6000830184610fce565b92915050565b60008190508160005260206000209050919050565b60006020601f8301049050919050565b600082821b905092915050565b6000600883026114e47fffffffffffffffffffffffffffffffffffffffffffffffffffffffffffffffff826114a7565b6114ee86836114a7565b95508019841693508086168417925050509392505050565b6000819050919050565b600061152b61152661152184610f6b565b611506565b610f6b565b9050919050565b6000819050919050565b61154583611510565b61155961155182611532565b8484546114b4565b825550505050565b600090565b61156e611561565b61157981848461153c565b505050565b5b8181101561159d57611592600082611566565b60018101905061157f565b5050565b601f8211156115e2576115b381611482565b6115bc84611497565b810160208510156115cb578190505b6115df6115d785611497565b83018261157e565b50505b505050565b600082821c905092915050565b6000611605600019846008026115e7565b1980831691505092915050565b600061161e83836115f4565b9150826002028217905092915050565b6116378261101e565b67ffffffffffffffff8111156116505761164f61120e565b5b61165a8254611407565b6116658282856115a1565b600060209050601f8311600181146116985760008415611686578287015190505b6116908582611612565b8655506116f8565b601f1984166116a686611482565b60005b828110156116ce578489015182556001820191506020850194506020810190506116a9565b868310156116eb57848901516116e7601f8916826115f4565b8355505b6001600288020188555050505b505050505050565b7f4e487b7100000000000000000000000000000000000000000000000000000000600052601160045260246000fd5b600061173a82610f6b565b915061174583610f6b565b925082820190508082111561175d5761175c611700565b5b9291505056fea26469706673582212202bc61c15a5e21f435a83a0a6253886dea13e6bb8a043b8f4f1b69badc96a416764736f6c63430008130033",
  "immutableReferences": {},
  "source": "// SPDX-License-Identifier: UNLICENSED\npragma solidity ^0.8.0;\n\ncontract CoffeeSupplyChain {\n    uint256 sku; // Stock Keeping Unit (SKU)\n\n    mapping(uint256 => Item) items;\n    mapping(uint256 => string[]) itemsHistory;\n\n    enum State {\n        Harvested, //0\n        Processed,\n        Packed,\n        ForSale,\n        Sold,\n        Shipped,\n        Received,\n        Purchased\n    }\n\n    State constant defaultState = State.Harvested;\n\n    struct Item {\n        uint256 sku;\n        uint256 upc;\n        address ownerId; // address of the current owner as the product moves through 8 stages\n        address farmerId;\n        string productId;\n        string productNotes;\n        uint256 productPrice;\n        State itemState;\n        address distributorId;\n        address retailerId;\n        address consumerId;\n    }\n\n    event Harvested(uint256 upc);\n    event Processed(uint256 upc);\n    event Packed(uint256 upc);\n    event ForSale(uint256 upc);\n    event Sold(uint256 upc);\n    event Shipped(uint256 upc);\n    event Received(uint256 upc);\n    event Purchased(uint256 upc);\n\n    modifier harvested(uint256 _upc) {\n        require(items[_upc].itemState == State.Harvested);\n        _;\n    }\n\n    modifier processed(uint256 _upc) {\n        require(items[_upc].itemState == State.Processed);\n        _;\n    }\n\n    modifier packed(uint256 _upc) {\n        require(items[_upc].itemState == State.Packed);\n        _;\n    }\n\n    modifier forSale(uint256 _upc) {\n        require(items[_upc].itemState == State.ForSale);\n        _;\n    }\n\n    modifier sold(uint256 _upc) {\n        require(items[_upc].itemState == State.Sold);\n        _;\n    }\n\n    modifier shipped(uint256 _upc) {\n        require(items[_upc].itemState == State.Shipped);\n        _;\n    }\n\n    modifier received(uint256 _upc) {\n        require(items[_upc].itemState == State.Received);\n        _;\n    }\n\n    modifier purchased(uint256 _upc) {\n        require(items[_upc].itemState == State.Purchased);\n        _;\n    }\n\n    constructor() {\n        sku = 1;\n    }\n\n    function harvestItem(\n        uint256 _upc,\n        address _farmerId,\n        string memory _productNotes,\n        string memory _productId\n    ) public {\n        items[_upc] = Item({\n            sku: sku,\n            upc: _upc,\n            ownerId: _farmerId,\n            farmerId: _farmerId,\n            productId: _productId,\n            productNotes: _productNotes,\n            productPrice: 0,\n            itemState: State.Harvested,\n            distributorId: address(0),\n            retailerId: address(0),\n            consumerId: address(0)\n        });\n\n        sku = sku + 1;\n        emit Harvested(_upc);\n    }\n\n    function processItem(\n        uint256 _upc\n    )\n        public\n        // Calling modifier to check if upc has passed previous supply chain stage\n        harvested(_upc)\n    {\n        items[_upc].itemState = State.Processed;\n        emit Processed(_upc);\n    }\n\n    function packItem(\n        uint256 _upc\n    )\n        public\n        // Call modifier to check if upc has passed previous supply chain stage\n        processed(_upc)\n    {\n        items[_upc].itemState = State.Packed;\n        emit Packed(_upc);\n    }\n\n    function sellItem(\n        uint256 _upc,\n        uint256 _price\n    )\n        public\n        // Call modifier to check if upc has passed previous supply chain stage\n        packed(_upc)\n    {\n        items[_upc].itemState = State.ForSale;\n        items[_upc].productPrice = _price;\n        emit ForSale(_upc);\n    }\n\n//Distributor Task\n    function buyItem(\n        uint256 _upc,\n        address _distributorId\n    )\n        public\n        // Call modifier to check if upc has passed previous supply chain stage\n        forSale(_upc)\n    {\n        items[_upc].ownerId = _distributorId;\n        items[_upc].distributorId = _distributorId;\n        items[_upc].itemState = State.Sold;\n        emit Sold(_upc);\n    }\n\n    function shipItem(\n        uint256 _upc\n    )\n        public\n        // Call modifier to check if upc has passed previous supply chain stage\n        sold(_upc)\n    {\n        items[_upc].itemState = State.Shipped;\n        emit Shipped(_upc);\n    }\n\n    function receiveItem(\n        uint256 _upc,\n        address _retailerId\n    ) public shipped(_upc) {\n        items[_upc].ownerId = _retailerId;\n        items[_upc].retailerId = _retailerId;\n        items[_upc].itemState = State.Received;\n        emit Received(_upc);\n    }\n\n    function purchaseItem(\n        uint256 _upc,\n        address _consumerId\n    ) public received(_upc) {\n        items[_upc].ownerId = _consumerId;\n        items[_upc].consumerId = _consumerId;\n        items[_upc].itemState = State.Purchased;\n        emit Purchased(_upc);\n    }\n\n    function fetchItemByUpc(\n        uint256 _upc\n    )\n        public\n        view\n        returns (\n            uint256 itemSKU,\n            uint256 itemUPC,\n            address farmerId,\n            string memory productId,\n            string memory productNotes,\n            uint256 productPrice,\n            uint256 itemState,\n            address distributorId,\n            address retailerId,\n            address consumerId\n        )\n    {\n        itemSKU = items[_upc].sku;\n        itemUPC = items[_upc].upc;\n        farmerId = items[_upc].farmerId;\n        productId = items[_upc].productId;\n        productNotes = items[_upc].productNotes;\n        productPrice = items[_upc].productPrice;\n        //convert to numeric value\n        itemState = uint256(items[_upc].itemState);\n        distributorId = items[_upc].distributorId;\n        retailerId = items[_upc].retailerId;\n        consumerId = items[_upc].consumerId;\n\n        return (\n            itemSKU,\n            itemUPC,\n            farmerId,\n            productId,\n            productNotes,\n            productPrice,\n            itemState,\n            distributorId,\n            retailerId,\n            consumerId\n        );\n    }\n}",
  "sourcePath": "/Users/md.abidkhan/Documents/abid/official/hedera/code/hedera-cscp/contracts/CoffeeSupplyChain.sol",
  "compiler": {
    "name": "solc",
    "version": "0.8.19+commit.7dd6d404.Emscripten.clang"
  },
  "schemaVersion": "3.4.13",
  "updatedAt": "2023-03-28T08:07:34.298Z",
  "devdoc": {
    "kind": "dev",
    "methods": {},
    "version": 1
  },
  "userdoc": {
    "kind": "user",
    "methods": {},
    "version": 1
  }
}